:020000040800F2
:10000000E0410620950300085BE900088D7D0008AB
:100010001DDC0008612D00084D50010800000000A3
:100020000000000000000000000000004935010849
:10003000CD2F000800000000912C0008ED350108CC
:10004000CF030008CF030008CF030008151D0108E7
:10005000CF030008CF030008CF030008CF03000838
:10006000CF030008CF030008CF030008CF03000828
:10007000CF030008CF030008CF030008CF03000818
:10008000CF030008CF030008CF030008CF03000808
:10009000CF030008CF030008CF030008CF030008F8
:1000A000CF030008CF030008CF030008CF030008E8
:1000B000CF03000869360108CF030008CF0300080A
:1000C000CF030008CF030008CF030008CF030008C8
:1000D000CF030008354F0108954F0108F14F010883
:1000E000CF030008CD1B0108CF030008CF03000891
:1000F000CF030008CF030008CF030008CF03000898
:10010000CF030008CF030008CF030008CF03000887
:10011000CF030008CF030008CF030008CF03000877
:10012000CF030008CF030008CF030008CF03000867
:10013000CF030008CF030008CF030008CF03000857
:10014000CF030008CF030008CF030008CF03000847
:10015000CF030008CF030008CF030008CF03000837
:10016000CF030008CF030008CF030008CF03000827
:10017000CF030008CF030008CF03000800000000F1
:10018000CF030008CF030008CF030008CF03000807
:10019000CF030008CF030008CF030008CF030008F7
:1001A000CF030008CF030008CF030008CF030008E7
:1001B000CF030008CF030008CF030008CF030008D7
:1001C000CF030008CF03000800000000CF030008A1
:1001D000CF030008CF030008CF030008CF030008B7
:1001E000CF030008CF030008CF030008CF030008A7
:1001F000CF030008CF03000800F002F800F0B2F8C7
:100200000AA090E8000C82448344AAF10107DA4571
:1002100001D100F0A7F8AFF2090EBAE80F0013F011
:10022000010F18BFFB1A43F00103184750230500C4
:10023000702305000A444FF0000C10F8013B13F046
:10024000070408BF10F8014B1D1108BF10F8015B2F
:10025000641E05D010F8016B641E01F8016BF9D122
:1002600013F0080F1EBF10F8014BAD1C0C1B09D179
:100270006D1E58BF01F801CBFAD505E014F8016BEB
:1002800001F8016B6D1EF9D59142D6D3704700007D
:100290000023002400250026103A28BF78C1FBD88F
:1002A000520728BF30C148BF0B6070476E2901F06C
:1002B0000183702901F00D80662919F0E98665290E
:1002C00019F0E686672919F0E386612919F0E286BC
:1002D00003681B0A28BF41F08001692900F04087AC
:1002E000642900F03D87752900F03A876F2901F0F5
:1002F000C985782900F0D987E92900F06D87E429BC
:1003000000F06A87F52900F06787EF2901F0C685BC
:10031000F82900F0D8870368DB0928BF41F0800185
:10032000632901F01085732901F01585E32901F097
:10033000BD87F32901F0C287002070471FB519F06F
:1003400091FE01F0E7FD04000020002119F074FE89
:10035000401C60600020002119F058FEE0601FBDC5
:1003600010B510BD02F044F81146FFF7E7FF18F092
:10037000E3FC02F06BF803B4FFF7F2FF03BC15F0E7
:1003800073F8000030BF72B6704762B6704780F3F2
:100390000888704711488047DFF84400016841F43D
:1003A00070010160BFF34F8FDFF83800016821F062
:1003B00040410160BFF36F8F0B480047FEE7FEE747
:1003C000FEE7FEE7FEE7FEE7FEE7FEE7FEE7FEE705
:1003D00006480749074A084B7047000011360108D4
:1003E00088ED00E034EF00E0F9010008E027062086
:1003F000E0410620E0370620E037062072B670475D
:1004000062B67047EFF3108072B6704780F31088C1
:10041000704730BF704720BF7047B0FA80F0704718
:1004200090FAA0F0B0FA80F0704790FAA0F0704710
:100430009FED1A1AF5EE000A40EE010ABDEEE00A41
:10044000F5EEC00AF1EE10FA10EE100A38BF401EA9
:1004500000EE100A9FED121A1249B8EEC00AF7EE2C
:10046000001A30EEC00A60EE010ABCEEE00A10EE9F
:10047000100AC0F3080000EE100A01EB8000B8EE8D
:10048000400A90ED011A70EEC00A90ED000A71EE7C
:10049000E01A21EE800A00EE810A704783F9223EBD
:1004A00000000044781C0508DFED1D0AB5EEC00A07
:1004B000F1EE10FA20EE200AFDEEC00A10EE900ACE
:1004C00038BF401E01EE100ADFED160AB8EEC11A61
:1004D00030EE410A20EE200AB4EEE00AF1EE10FA06
:1004E000A8BF30EE600AFCEEC00A0F49F7EE001A12
:1004F00010EE900AC0F3080000EE900A01EB8000B5
:10050000F8EE600A90ED011A70EE600A90ED000AB4
:1005100071EEE01A21EE800A00EE810A70470000B9
:1005200083F9223E00000044781C05089FED3E0A36
:100530005FEA920C59D000BFD0ED000A90ED011A8D
:100540000B1D60EEA00A083041EE010AF5EEC00A6C
:10055000F1EE10FAA6BFB1EEE01A81ED001A81EDBE
:10056000000AD0ED000A90ED011A00F1080160EEDA
:10057000A00A181D41EE010AF5EEC00AF1EE10FACC
:10058000A6BFB1EEE01A83ED001A83ED000AD1EDAB
:10059000000A91ED011A031D60EEA00A083141EE38
:1005A000010AF5EEC00AF1EE10FAA6BFB1EEE01AAC
:1005B00080ED001A80ED000AD1ED000A91ED011ADC
:1005C000081D60EEA00A191D001D41EE010AF5EE9E
:1005D000C00AF1EE10FAA6BFB1EEE01A83ED001AE0
:1005E00083ED000ABCF1010CA6D112F0030208BF92
:1005F000704700BFD0ED000A90ED011A08300B469D
:1006000060EEA00A091D41EE010AF5EEC00AF1EE06
:1006100010FAA6BFB1EEE01A83ED001A83ED000ACE
:10062000521EE7D170470000000000002DE9F04F96
:1006300000264FEA910C35462DED048B82B06446BE
:10064000CDF804C006EB0C0909EB0C0808EB0C070D
:1006500000EBC60A00EBC808DAED000A98ED001AB4
:1006600000EBC90900EBC70730EE810A70EEC12A22
:100670009AED013AD8ED014AD9ED011AD7ED013AC8
:1006800099ED005A97ED002A73EE240A31EEA34A41
:1006900035EE021A33EE643A71EEE34A4FEA450B47
:1006A00035EE422A0BEB050E30EE015A02EBCB0B76
:1006B00070EE845ADBED001ADBED013A30EE410AB0
:1006C00070EEC40A8AED005ACAED015A32EEA41A3D
:1006D00032EEE44A02EBC50A73EE422A20EE216AAA
:1006E00060EEA11A32EE033ADAED004A60EEA30A98
:1006F0009AED012A60EE233A21EE240A62EEA44A22
:1007000002EBCE0B62EE822A61EE026A9BED005A8A
:10071000DBED015A30EE220A23EE052A74EEE62ABA
:1007200024EE051A23EE253A76EE204A24EE254AD9
:1007300071EEE31AC9ED004A71EE030AC9ED011A20
:1007400032EE441A88ED000AC8ED012AC7ED000A0E
:10075000641E87ED011A06F101061D447FF472AF95
:10076000019C4FF6FF7505EA830B0094042C7CD99D
:100770000027E0464FEA9C0CBA46ACF1010E7D0022
:10078000EC1902EBC70302EBC50502EBC40493EDC1
:10079000005A93ED014AD5ED002AD5ED015AD4ED6A
:1007A000004AD4ED013A5F444FEA0A0303EB0C051B
:1007B00005EB0C0404EB0C0900EBC30600EBC404CE
:1007C00096ED001A94ED002A00EBC50500EBC9096F
:1007D00096ED013A94ED016AD5ED007A99ED007A33
:1007E00071EE421A31EE022A33EE461A33EE066AF1
:1007F00037EE873A95ED010AD9ED010A77EEC76A1F
:1008000072EE437A30EE607A30EE200A72EE038A9E
:10081000434471EE870A31EEC77A71EE661A36EEFE
:10082000811A76EE406A76EE009A21EE852A20EE55
:10083000850A61EE841A20EE846A67EEA20A26EE2B
:10084000A23A27EE249A21EE248AC6ED008A8B4232
:1008500066EEA56A67EEA57A21EE231A27EE237AC3
:10086000C6ED019A30EE210A00E026E072EE461A4B
:1008700070EEA60A33EE672A39EE011AC5ED000ABA
:1008800085ED012A38EE473A84ED000AC4ED011ADD
:1008900089ED001A89ED013A88D30AF1010AF2457F
:1008A0007FF66DAF009B9B080093009C4FF6FF7393
:1008B00003EA8B0B042C3FF65BAF0199D0ED002AC5
:1008C00090ED041AD0ED010A90ED054A72EE811AFE
:1008D000D0ED023A90ED063A72EEC12A30EE841A5B
:1008E00090ED030A90ED072A70EEC40A33EE834AB6
:1008F00073EEC33A30EE023A30EE420A31EE842A09
:1009000071EEC44A71EE031A31EE433A80ED002ACB
:1009100032EE801AC0ED011A30EEE34AC0ED024A11
:1009200072EEC02A80ED033A33EEA00A80ED041A7D
:1009300080ED054AC0ED062A80ED070A491E00F148
:100940002000BBD102B0BDEC048BBDE8F08F2DE9D7
:10095000F04F00264FEA910C35462DED068B82B004
:100960006446CDF804C000BF06EB0C0808EB0C0988
:1009700009EB0C0700EBC80800EBC70700EBC60A41
:1009800000EBC909DAED000A99ED001ADAED015A17
:1009900099ED013A30EE815A98ED002AD8ED013AEE
:1009A00030EEC11AD7ED002AD7ED014A75EE830A61
:1009B00072EE221A33EEA44A4FEA450B35EEC33AE3
:1009C0000BEB050E72EE622A73EEE44A02EBCB0BE0
:1009D00030EE846A75EE215A9BED002ADBED013A78
:1009E00030EEC44A75EE611ACAED005A8AED016A0A
:1009F00071EE640A61EE826A24EE022A31EE241A54
:100A000024EE234A73EE224A02EBC50A61EEA33AB2
:100A100033EE623ADAED002ADAED015A02EBCE0B40
:100A200060EEA21A64EEA22A64EEA54A9BED005A7B
:100A30009BED016A60EEA55A61EE050A23EE055AA8
:100A400023EE063A36EEC44A21EE061A32EE232A87
:100A500071EEE41A72EEA52A88ED004A70EEC30A20
:100A600088ED012A35EE011AC9ED001AC9ED012AF7
:100A7000C7ED000A641E87ED011A06F101061D4448
:100A80007FF472AF019C4FF6FF7505EA830B00946B
:100A9000042C7CD90027E0464FEA9C0CBA46ACF106
:100AA000010E7D00EC1902EBC70302EBC50502EB5A
:100AB000C404D3ED005A93ED015A95ED002AD5ED0B
:100AC000014AD4ED002A94ED016A5F444FEA0A031B
:100AD00003EB0C0505EB0C0404EB0C0900EBC3065F
:100AE00000EBC40496ED007A94ED001A96ED014AED
:100AF00094ED013A00EBC50500EBC90977EE413AE8
:100B0000D5ED001AD9ED007A37EE011A34EE437AAA
:100B100034EE033A31EEE74AD5ED010AD9ED016A28
:100B200071EEA71A37EE448A70EEE67A70EEA66A86
:100B300071EE218A28EE229A73EEE70A73EEA77A05
:100B400077EE043A33EE26AA31EE617A33EE664A46
:100B500020EEA51A23EE853A63EEA51A60EE856AAB
:100B600067EE020A64EE023A67EEA29AC6ED008AC8
:100B700043448B4224EE244A27EE247A28EE068A48
:100B800067EE867A86ED01AA31EE431A00E026E090
:100B900070EEC40A33EE873A71EEA61AC5ED000A6C
:100BA00079EEC83A85ED013A39EE274A84ED001A0C
:100BB000C4ED011AC9ED003A89ED014A88D30AF162
:100BC000010AF2457FF66DAF009B9B080093009CE5
:100BD0004FF6FF7303EA8B0B042C3FF65BAF0199D2
:100BE000D0ED000AD0ED042A90ED012A90ED054ADF
:100BF00070EEA23A90ED021AD0ED064A70EEE20ACB
:100C000072EE042AD0ED031A90ED073A32EE442A30
:100C100031EE244A31EE641A71EE834A71EEC31A42
:100C200033EE843A73EEC43A32EEA44A72EEE42A0A
:100C300070EEE14A70EEA11A72EE010A32EE415AEC
:100C400023EE001A24EE002A23EE803A62EE802A78
:100C500080ED001A64EE803A80ED012A60EE800A91
:100C600080ED023A21EE804AC0ED032A65EE001ABB
:100C7000C0ED043AC0ED050A80ED064AC0ED071A42
:100C8000491E00F12000ABD102B0BDEC068BBDE8DF
:100C9000F08F70B5044680780D4601282188A3891D
:100CA00062680ED02846FFF7C1FCE078012818BF23
:100CB00070BDE28928462188A368BDE8704000F035
:100CC00069B894ED040A2846FFF741FEEDE70000FD
:100CD00082700022C370B1F5807F234B0180436096
:100CE00023D004DC102934D0402928D005E0B1F508
:100CF000806F10D0B1F5805F03D04FF0FF32104607
:100D000070471B4B01219FED190A836080ED040A97
:100D10008181C181F3E7174B042181819FED160A80
:100D20008360C18180ED040AE9E7144B10218181C1
:100D30009FED130A8360C18180ED040ADFE7114B48
:100D4000402181819FED100A8360C18180ED040AFA
:100D5000D5E70E4B4FF4807181819FED0D0A8360C2
:100D6000C18180ED040ACAE7789C0408000080393C
:100D7000789404087E9404080000803A969404084D
:100D80000000803BF69404080000803C769604083E
:100D90000000803D2DE9F0074FF0010C0CEB5109EC
:100DA0004FF0000C4FEA51086146A8F1020A2DE00D
:100DB00061452BD200EBCC0400EBC105D4ED000A59
:100DC00095ED000AC5ED000A84ED000AD4ED010A94
:100DD0000CEB090695ED010A01EB0907C5ED010AC7
:100DE00000EBC60684ED010A00EBC707D6ED000A4A
:100DF00097ED000AC7ED000A86ED000AD6ED010A5C
:100E000097ED010AC7ED010A86ED010AC44400EB23
:100E1000C10400EBCC0C94ED020ADCED000A891C45
:100E2000C4ED020A8CED000ADCED010A94ED030A20
:100E3000C4ED030A8CED010A89B2B3F800C0514534
:100E400003EB4203B4D9BDE8F00770472DE9F04F3A
:100E50004FF0010C0CEB51094FF0000C4FEA510818
:100E60006146A8F1020A25E0614523D200EBC106E4
:100E700000EBCC0501EB0907D6F800E00CEB090408
:100E8000D5F800B000EBC707C6F800B000EBC4040B
:100E9000C5F800E0D6F804E0D5F804B0C6F804B010
:100EA000C5F804E03D6826683E6025607D68666898
:100EB0007E606560C44400EBC10400EBCC0C891C6F
:100EC000A5685145DCF80060A660CCF80050E668E3
:100ED000DCF80450E560CCF80460B3F800C003EB24
:100EE0004203C1D9BDE8F08F2DE9F00F4F084FF054
:100EF000010C0CEB51084FF0000C7C0804BFBDE85E
:100F0000F00F704700EB88050146002615E000BF92
:100F1000BCEB460F11D950F82CB00CEB0809D1F8F6
:100F200000A0C1F800B040F82CA050F829B0D5F8C6
:100F300000A0C5F800B040F829A0BC44D1F8049046
:100F400005F1080506F1010650F82CA0C1F804A02F
:100F5000083140F82C90B3F800C0641E03EB420344
:100F6000D6D1BDE8F00F7047704753EA020C00F08D
:100F700069802DE9F04B4FF00006002B1FBFB3FA3C
:100F800083F503FA05F424FA05F65E4012BF164312
:100F9000B2FA82F502FA05F4C5F120051EBF22FA65
:100FA00005FC44EA0C04203556EA044C4FEA14448C
:100FB00018BF641C4FF000084FF00009904271EB1D
:100FC000030C39D3002919BFB1FA81F701FA07F6EA
:100FD000B0FA80F700FA07F6C7F120071EBF20FA23
:100FE00007FC46EA0C062037B6FBF4FCA7EB050726
:100FF000103F07F01F0BCBF120060CFA0BFB2CFA6D
:1010000006F644BFB3460026202FA4BF5E464FF02D
:10101000000B5BEA060C08BF4FF0010B19EB0B0944
:10102000ABFB027C48EB0608C01B06FB02CC0BFBAB
:1010300003CC71EB0C01C1E70B4602464146484622
:10104000BDE8F08B13B54FF000004FF00001AFF397
:101050000080BDE81C4070471CB50C46064B7B4425
:1010600069460090204600F04CFE04460020694688
:1010700000F05AFE20461CBDC70C00000FB4044906
:1010800010B503AA029800F06BFE10BC5DF814FBCB
:10109000100002200FB41CB5084B06AA7B44694619
:1010A0000090059800F02DFE04460020694600F0EF
:1010B0003BFE20461CBC5DF814FB0000890C0000C0
:1010C00070B5044685690068C10601D5302600E088
:1010D0002026C00707D070BDD4E9012130469047D3
:1010E000206A401C20626D1EF6D570BD70B50446A6
:1010F00085690078C00707D170BDD4E9012120209F
:101100009047206A401C20626D1EF6D570BD70B5F8
:101110000C460546012A05D02878800600D5EA69E4
:10112000002302E0012305E05B1C934202D2E05C55
:101130000028F9D1A869E618C01AA861286A1844DD
:1011400028622846FFF7BCFF04E0D5E9012114F826
:10115000010B9047B442F8D32846FFF7C7FF70BD94
:101160002DE9F0410646002410687529314616A580
:1011700010D000F034FB002802DA404213A507E04B
:1011800031688A0701D512A502E0490704D511A5E7
:10119000012401E000F02CFB00210A2206F12407C3
:1011A00009E0B0FBF2FCB0FBF2F302FB1C003030B4
:1011B00078541846491C0028F3D123462A46304665
:1011C000BDE8F04100F01DBB000000002D00000054
:1011D0002B000000200000002DE9F0418046D21DC8
:1011E00022F007020025D2E90002F52915A614D045
:1011F000011E72F1000106DA0023D0EB030063EB5D
:10120000020211A608E0D8F800108B0701D50FA63E
:1012100002E0490701D50EA601251146002408F178
:10122000240704E000F096FA30323A55641C50EA84
:101230000102F7D12B46324621464046BDE8F04137
:1012400000F0DFBA000000002D0000002B000000BD
:1012500020000000F0B40D460188090502D5214C9C
:101260007C4402E01F4C7C440E34002100F1240633
:1012700008E002F00F071209E75D42EA03721B095A
:101280007754491C52EA0307F3D10278002312076E
:1012900004D5702D06D009B1022311342246F0BCCA
:1012A00000F0AFBA01231034F8E770B504460D46DC
:1012B0002146106800F09CFA024629462046BDE807
:1012C00070400023C6E7D21D22F00703D3E90023B4
:1012D000C0E70368126843F0200303600823C3617A
:1012E0000023B7E7181205002DE9F05F8946044690
:1012F0004FF0000ADFF874B1FB44C0F820A020468C
:10130000E1688847002874D0252806D0D4E9012157
:101310009047206A401C2062F1E700265F46204685
:10132000E16888472028054607DB312D05D278196A
:1013300010F8200C08B10643F1E7B00701D526F0FC
:101340000406C4F81CA00027C4F818A02A2D09D050
:10135000284614F082F838B304EB8708303DC8F80B
:10136000185019E059F8041B204604EB87029161DC
:10137000E1688847012F054618D1E069002820DA86
:1013800026F020061DE0D8F8180000EB800005EBE1
:1013900040003038C8F818002046E1688847054604
:1013A00014F05BF80028EED1012F0AD02E2D08D1C1
:1013B0002046E16888477F1C0546022F46F020063C
:1013C000C4DBA069002803DA404246F00106A061B0
:1013D000F00701D026F010066C2D0BD0682D09D037
:1013E0004C2D39D06A2D35D0742D35D07A2D33D08F
:1013F00016E038E0E1682F4620468847B8420546A7
:1014000009D16C2F26D04FF48060E1680643204656
:101410008847054604E06C2F1AD04FF480700643CD
:101420000DB3A5F14100192802D8203546F4006615
:101430004A462946204626604E46FEF737FF80B1D1
:1014400001280BD0F61D26F0070000F1080956E729
:101450004020E4E78020D8E70020D6E706F1040921
:101460004DE7284652E7206ABDE8F09FA811050025
:1014700030B505460B462A4613F8014B12F8010B0E
:1014800008B1A042F8D01CB1002802D06D1CF1E7D1
:10149000284630BD40EA0103024630B59B0710D113
:1014A0004FF0013400E008C208C91D1B9D4315EA36
:1014B000C41FF8D013F0FF0102F8011B0DD01B0A66
:1014C000F8E711F8013B002B02F8013B05D011F8B9
:1014D000013B002B02F8013BF3D130BD10B5431C9A
:1014E00002E010F8011B71B18107FAD14FF001320F
:1014F00002C88C1A8C4314EAC211F9D0C01A0A0629
:1015000003D0C01E10BDC01A10BD0A0401D0801E39
:1015100010BD0902FCD0401E10BD40EA010370B5A9
:101520009B072ED14FF00136042A2AD308C810C9D0
:101530009D1B9D43121F15EAC61517D0D8B2E1B204
:10154000401A50EA056110D198B2A1B2401A50EA8F
:1015500005410AD123F07F4024F07F41401A50EA30
:10156000052102D1180EA0EB146070BDA342DBD0A0
:1015700018BA21BA884201D9012070BD4FF0FF305E
:1015800070BD0AB9002070BD10F8013B11F8014B85
:1015900063B1A3420AD1521E08D010F8013B11F8E2
:1015A000014B1BB1A34201D1521EEDD1181B70BDDE
:1015B000421E12F8013F002BFBD111F8013B002B1A
:1015C00002F8013BF9D17047032A40F2308010F055
:1015D000030C00F0158011F8013BBCF1020F6244CE
:1015E00098BF11F801CB00F8013B38BF11F8013B5F
:1015F000A2F1040298BF00F801CB38BF00F8013B0C
:1016000011F0030300F05484083AC0F0088051F848
:10161000043B083A51F804CBA0E80810F5E7121D86
:101620005CBF51F8043B40F8043BAFF30080D207A5
:1016300024BF11F8013B11F801CB48BF11F8012B71
:1016400024BF00F8013B00F801CB48BF00F8012B94
:1016500070474FF000020429C0F0128010F0030C14
:1016600000F01B80CCF1040CBCF1020F18BF00F895
:10167000012BA8BF20F8022BA1EB0C0100F00DB844
:101680005FEAC17C24BF00F8012B00F8012B48BFA2
:1016900000F8012B70474FF0000200B51346944646
:1016A0009646203922BFA0E80C50A0E80C50B1F1BA
:1016B0002001BFF4F7AF090728BFA0E80C5048BFCE
:1016C0000CC05DF804EB890028BF40F8042B08BF6C
:1016D000704748BF20F8022B11F0804F18BF00F868
:1016E000012B70474FF0013C50F8042B51F8043B9C
:1016F0009A4215D1A2EB0C03934313EACC130BD1FE
:1017000050F8042B51F8043B9A4209D1A2EB0C0388
:10171000934313EACC13E7D04FF00000704700BFAB
:10172000D01A01BAB1FA81F101F0180122FA01F0E0
:10173000CB40C1F12001DBB2C0B2C01A2CFA01F3D8
:10174000D11A914311EAC311E6D17047704770472F
:101750007047704730B5B0F10A024FEA900E71F150
:1017600000034EEA817EB0EB0E0061EB91014FEA7F
:10177000101E4EEA017E10EB0E0041EB11114FEAF4
:10178000102E4EEA016E10EB0E0041EB11214FEAD4
:10179000104E4EEA014E10EB0E0041EB1141401885
:1017A00041F100014FEAD00040EA41704FEAD10117
:1017B00010EB80054FEA810444EA907444EB010485
:1017C0006D1944EB0404521BA3414FF0000348BFC2
:1017D0000A3200D530BD401C41F1000130BD09681E
:1017E0004A0501D540B27047C905FCD500B2704723
:1017F00009684A0501D5C0B27047C905FCD580B259
:1018000070472DE9F0470D4699469246044600F18F
:1018100024080168880604D5E06921F010012160E0
:1018200000E00120A84201DD471B00E00027A1697C
:101830007A1902EB0900081AA0612078C00602D4C8
:101840002046FFF73DFC002608E0D4E901211AF804
:1018500006009047206A401C761C20624E45F4DB4F
:101860002078C0060AD52046FFF72AFC06E0D4E916
:10187000012130209047206A401C2062381EA7F1C9
:101880000107F4DC07E0D4E9012118F805009047CE
:10189000206A401C2062281EA5F10105F3DC2046C9
:1018A000FFF724FC2078000602D50220BDE8F0876F
:1018B0000120FBE711680268006A530501D5087032
:1018C0000AE0D30501D5088006E0130603D5C21748
:1018D000C1E9000200E008600120704770472DE96F
:1018E000FF4F0C461E464FF0FF378BB0D2E9000188
:1018F000DDF860800A908A46C1F30A5505B93D4675
:101900000021084618F0B4FBBAF1000F00F44000C3
:1019100005DA00EB80004FF4400101EA50004FEA85
:101920009059B9F1010F00DDB9460A9850EA4A0012
:101930000ED044F61050A5F2FF3545432F14B8F1F0
:10194000000F1ED07542291E1EDDC9F100021CE0E9
:10195000B8F1010F4FF0000001D0302103E0F24355
:1019600005E02154401CB042FBDB30460022002140
:1019700021540B99C1F80880C1E900200FB0BDE8DF
:10198000F08FBD1B6D1CDEE74A4600DA694206A8EF
:1019900000F098FC06AB93E8070003AB83E8070070
:1019A00050460A9900F05BFD8DE80700A0F5005055
:1019B0001F3800900398002D09DD42F21F014A46AE
:1019C000084403A90390684600F0BAFF08E0A0F5B8
:1019D00000504A461F3803A90390684600F0C4FF30
:1019E0008DE807000004000C03D04FF0FF304108E1
:1019F00000E01046B8F1000F03D000220092154617
:101A00001EE0751E05D4FFF7A5FE303262556D1E2F
:101A1000F9D5B3460122084302D000227F1C04E01E
:101A20002078302801D100227F1E002A099786D015
:101A30001DE0112D07DAFFF78DFE303262556D1C67
:101A400050EA0102F5D1084302D00098C8B10EE077
:101A50000021681E05E0235C625C63542254401E32
:101A6000491C8142F7DBAB46A81B401E09900020B1
:101A700004F80B000B98099AC0F80880C0E9002B05
:101A80007CE711264FF0000859E72DE9F04F884612
:101A90000446D21D22F0070191B0D1E90001CDE941
:101AA0000A0113F0C2FC02460B98C00F01D02D2092
:101AB00007E02068810701D52B2002E0202101EA00
:101AC000C000032A099001D0072A05DB03464146DE
:101AD000204600F0A1FB0BE12078800601D5E069EB
:101AE00000E00620B8F1650F814606D0B8F1660F18
:101AF00018D0B8F1670F70D131E00020B9F1110FA3
:101B0000009001DB112301E009F101030AAA01A9F8
:101B10000CA8FFF7E4FEDDE90C70002609F10105D1
:101B2000834647E001204B4600904FF000470AAA49
:101B300001A90CA8FFF7D3FEDDE90DB00C995D46B5
:101B4000002610B909F101000D18B9EB050003D406
:101B5000C0F1FF3609F10105A5EB09002BE0B9F151
:101B6000010F01DA4FF001090020B9F1110F0090C7
:101B7000484601DD112300E003460AAA01A90CA88A
:101B8000FFF7ADFEDDE90C704D4600268346207858
:101B900000070AD4AB4500DA5D4601A8012D04DD3B
:101BA000411911F8011C302907D04F4502DA17F10D
:101BB000040F04DA012082460FE06D1EEEE7002FCD
:101BC00002DCED1B3E4403E0781CA84200DD7D1CD6
:101BD000B81B00F1010A4FF000472078000703D43A
:101BE000AA4501DB4FF0FF3A0021B7F1004F0DF19C
:101BF00043088DF8431024D002202B23002F01DA54
:101C00007F422D230A21021EA0F1010000DC5FB1FA
:101C100097FBF1FC97FBF1F201FB1C7C17460CF1E2
:101C2000300C08F801CDEEE7A8F10100037021881F
:101C3000090501D5452100E06521A0F1010800F862
:101C4000011C09980FA9A1EB0807FF1D00B1012095
:101C5000411901EBEA70A1693844081A401EA061DD
:101C60002078C00602D42046FFF72AFA099828B146
:101C7000D4E901219047206A401C20622078C006E8
:101C800022D52046FFF71CFA1EE0002E04DBB345E8
:101C900002DD01A8805D00E03020D4E901219047F9
:101CA000206A401C2062761CAAF101005FEA000A4B
:101CB0000AD100F02FF9C0680168405CD4E9012125
:101CC0009047206A401C2062281EA5F10105DCDC3B
:101CD00007E0D4E9012118F8010B9047206A401C65
:101CE0002062381EA7F10107F3DC2046FFF7FEF95A
:101CF000032011B043E6000001694A1C0261087824
:101D0000704700B58FB0CDE901310021059105493B
:101D10007944CDE9031011466846FFF7E5FA0FB0A4
:101D200000BD0000E5FFFFFF0A6802F8010B0A6032
:101D3000704710B5436913B1AFF3008001E0FFF7BE
:101D4000E6F9012010BD127800F124010A7000228A
:101D50004A700122EDE711684FF0FF32E9E7000019
:101D6000074B70B50D467B44FFF7CBFF0446284672
:101D700000F016FB10B14FF0FF3070BD204670BD73
:101D80006F6001002DE9FF5F15468A460446DFF8C3
:101D9000AC80F8440027D8E900103E46CDE9001099
:101DA00010E03AF816106A4602A800F0FDFA411C4D
:101DB00007D02178890603D5E269391891420DD8F8
:101DC0000744761C2078800602D5E069B84205DD1C
:101DD000AE42E6DB3AF816000028E2D1A069C01B4B
:101DE000A0612046FFF76CF9D8E90010CDE900109A
:101DF000002017E03AF818106A4602A800F0D4FA5A
:101E0000B0F1FF3F81460BD000250DF1080B05E036
:101E1000D4E901211BF8050090476D1C4D45F7D30F
:101E200008F10100B0428046E4DB206A38442062B9
:101E30002046FFF75BF9BDE8FF9F00002207050081
:101E400030B4002100F1240408E002F00705D208B4
:101E5000303542EA4372DB086554491C52EA0305F7
:101E6000F3D10468002310A2250708D504F020044C
:101E70000C4304D0C46901230CA2641EC46130BCAD
:101E8000FFF7BFBC10B5044621461068FFF7B0FC51
:101E900002462046BDE810400023D1E7D21D22F0C3
:101EA0000701D1E90023CBE700000000300000006B
:101EB00010B5203AC0F00B80B1E81850203AA0E8E5
:101EC0001850B1E81850A0E81850BFF4F5AF5FEA19
:101ED000027C24BFB1E81850A0E8185044BF18C9CC
:101EE00018C0BDE810405FEA827C24BF51F8043B73
:101EF00040F8043B08BF7047D20728BF31F8023BC7
:101F000048BF11F8012B28BF20F8023B48BF00F85A
:101F1000012B7047004870479C2706202DE9F04FA1
:101F200004460D46D21D22F0070089B0D0E9009783
:101F30004846394613F079FA0246F80F01D02D23AE
:101F400007E02068810701D52B2302E0202101EA68
:101F5000C0038DF820300BB1012000E00020032ADF
:101F6000824601D0072A04DB2946204600F054F9B6
:101F70003FE12078800601D40D2500E0E569C7F334
:101F80000A560D2D49DA00214FEA175B084618F072
:101F90006FF8002F00F4400007DA00EB80004FF4E8
:101FA000400100EBD07001EA60008115012901DDDC
:101FB0004FF0FF3100224FEA850CBCF1180F06D319
:101FC0001346ACF118004FF08052C24003E04FF4CA
:101FD000801323FA0CF30CF10C0CBCF1200F04D38A
:101FE000ACF1200C09FA0CF001E007FA0CF0002922
:101FF0004FF0004801DD18B90FE00ED140450CD379
:1020000019EB02095F4121B9404502D19F4329EAFA
:102010000209BBEB175F00D0761C2088000502D5B3
:102020007B48784402E07A487844193808AA30237B
:1020300002F80A30037C0AF10101002E0AF1020ABB
:1020400053546A4602DC4FF0300101E04FF0310199
:102050004FF001088DF8001002D0A6F2FF3603E021
:1020600059EA470100D06B4E002D02DC21780907A8
:1020700004D54FF002082E218DF80110C44600212E
:102080000BE0C7F303433F01C35C491C6D1E02F81C
:102090000830052908F1010801DA002DF1DC0021E2
:1020A0000CE000EB1973491C1B786D1E082902F81F
:1020B00008304FEA091908F1010801DA002DF0DCB7
:1020C00021688B0602D516E0A8F10108E04505DD80
:1020D00002EB080313F8013C302BF5D0B8F1000FE8
:1020E00009DD02EB080313F8013C2E2B03D109078D
:1020F00001D4A8F10108002D05DD3E2102F80810E9
:102100006D1E08F10108407C002E02F8080008F15D
:10211000010804DA2D20764202F8080002E02B20A4
:1021200002F808000A214FF47A70864208F101088B
:102130000BDB96FBF0F3303302F8083096FBF0F33C
:1021400008F1010800FB136601E0642E0CDB64203B
:1021500096FBF0F3303302F8083096FBF0F308F109
:10216000010800FB136601E00A2E06DB96FBF1F086
:10217000303002F8080008F1010896FBF1F001FB8D
:102180001060303002F80800A16908F1010808EB7E
:10219000050202EB0A00081AA0612078C00602D4EA
:1021A0002046FEF78DFF216A08AE01EB0A0020628F
:1021B00004E0D4E9012116F8010B9047BAF1010AB5
:1021C000F7D22078C00602D52046FEF779FF6E468A
:1021D00009E016F8010B3E280FD0D4E90121904701
:1021E000206A401C2062B8F10108F2D22046FEF7B6
:1021F0007DFF09B00320BDE8F08F206A28442062EB
:1022000003E0D4E90121302090476D1EEBD3F8E7BD
:10221000AD04050002FCFFFF2DE9F0411F46044616
:1022200003260168072A01F4006004DB08B116A543
:1022300005E016A503E008B115A500E015A521F0FD
:1022400010002060A069C01EA0610FB1401EA061F7
:102250002046FEF735FF4FB1D4E9012138469047BB
:10226000206A401C2062C01C206206E0206AFAE757
:10227000D4E9012115F8010B9047761EF8D22046CB
:10228000FEF734FFBDE8F0814E414E006E616E00F6
:10229000494E4600696E660010B5436913B1AFF34D
:1022A000008001E0FFF76EFD012010BD128800F1F3
:1022B000240182840022C2840122EDE711684FF0DC
:1022C000FF32E9E72DE9F047814616468AB03348E8
:1022D00078440DC88DE80D0030487844801C03AC6C
:1022E0000DC884E80D0041F69B300844372190FB6F
:1022F000F1F290FBF1F5A5F1800501FB12041B3C06
:1023000002D56442012000E00020DFF890A0804662
:102310000027FA44AAF1BE0A0DE0E00709D03246D0
:10232000684607EB47010AEB810100F01DFB8DE8D1
:10233000070064107F1C002CEFD1184F7F44AC3F86
:1023400018E0E80714D007EB04100DF1180A90E824
:102350000E008AE80E00C068F04201D1981908907A
:10236000324606A903A800F0FFFA03AB83E8070092
:102370006D10641C002DE4D132466946B8F1000F9F
:1023800003A802D000F0DCFA01E000F0EDFAC9E9A0
:102390000001C9F808200AB0BDE8F08790020500E6
:1023A000007B00F08000704770B516460C4605466D
:1023B00000F044F8036893F80101012806D0FF2CCF
:1023C0000FD8185D68B101202C7070BDD3F80701DB
:1023D0003246214603F2071303442846BDE8704005
:1023E00018474FF0FF3070BD004870477C2706202B
:1023F0007546FFF7F9FFAE4605006946534620F0E3
:102400000700854618B020B5FDF7E2FFBDE8204083
:102410004FF000064FF000074FF000084FF0000BA0
:1024200021F00701AC46ACE8C009ACE8C009ACE853
:10243000C009ACE8C0098D467047000010B5FFF731
:1024400069FD001D10BD00BFF17B010010B5044601
:10245000AFF300802046BDE81040FDF78CBF5FEA77
:10246000400C08BF91F0000F4FEA8C234FEAC122C5
:1024700043EA51514FEA1C5018BF00F5F0404FEAB3
:10248000300018BF41F000415FEA6C5C00F0298029
:10249000BCF1FF3F08BF40F080407047130C06BFFF
:1024A00012044FF0100C4FF0000C130E04BF120278
:1024B0000CF1080C130F04BF12010CF1040C930F64
:1024C00004BF92000CF1020CD30F04BF52000CF1B8
:1024D000010C11464FF00002A0F11F00A0EB0C0010
:1024E000704711F0004F08BF704731F000413FF4D2
:1024F000D5AF0B0C06BF09044FF0100C4FF0000CC9
:102500000B0E04BF09020CF1080C0B0F04BF0901EC
:102510000CF1040C8B0F04BF89000CF1020CCB0FE3
:1025200004BF49000CF1010CCCF12003A0EB0C001E
:1025300022FA03F302FA0CF241EA030100F101006E
:10254000704720F07F4C80EA030023F07F47ACEB1C
:10255000070303F57C5300F0004003F1FF032DE96E
:1025600080494FEA154B09B44FEA144325EA0B4E54
:1025700024EA03480FF2042606EB132749083E78A5
:102580005FEA320203FB0667C7F5000707FB06F6A2
:102590004FEA54374FEAD64606F1020607FB066CAF
:1025A000CCF1005C4FEA1C472CEA074C07FB06F411
:1025B0000CFB06F504EB15464FEA961634BF0020D7
:1025C0004FF000404FEAD13706FB07FC4FEA1C4CA6
:1025D0000CFB0BF7D21B03FB0CF761EB07010CFBA9
:1025E0000EF7B0EB074072EB17420CFB08F734BF55
:1025F000A2EB0742B2EB074261EB17414FEA0C44F2
:102600004FEA910706FB07FC4FEA1C4C0CFB0BF74B
:10261000B0EBC74072EB573203FB0CF734BFA2EBB1
:10262000C742B2EBC74261EB57310CFB0EF7B0EB80
:10263000C70072EB57720CFB08F734BFA2EBC7025E
:10264000B2EBC70261EB5771039F4FEA816141EA28
:10265000921104EBCC044FEAD1374FEA826206FBB9
:1026600007FC42EA90124FEA80604FEA1C4C0CFBD8
:102670000BF7D21B03FB0CF761EB07010CFB0EF70A
:10268000B0EB074072EB17420CFB08F734BFA2EB2C
:102690000742B2EB074261EB17414FEA8C554FEA14
:1026A000910704EB9C2406FB07FC4FEA1C4C0CFB37
:1026B0000BF7B0EBC74072EB573203FB0CF734BF9C
:1026C000A2EBC742B2EBC74261EB57310CFB0EF7EE
:1026D000B0EBC70072EB57720CFB08F734BFA2EBEC
:1026E000C702B2EBC70261EB577115EB4C254FEAFD
:1026F000816141EA92114FEA82624FEAD13742EAA0
:10270000901206FB07FC44F100044FEA80604FEA98
:102710001C4C0CFB0BF7D21B03FB0CF761EB070106
:102720000CFB0EF7B0EB074072EB17420CFB08F7FF
:1027300034BFA2EB0742B2EB074261EB174115EB46
:102740001C154FEA813141EA92414FEA823242EA56
:1027500090424FEA80304FEA0C7644F1000448EA98
:1027600003434EEA0B484FF0000EB2EB080C71EB3E
:10277000030724BF624639464EEB0E0E4FF0000BA6
:102780000018524149414BEB0B0BB2EB080C71EBBB
:1027900003077BF1000B24BF624639464EEB0E0E59
:1027A0004FF0000B0018524149414BEB0B0BB2EBC1
:1027B000080C71EB03077BF1000B24BF624639461E
:1027C0004EEB0E0E51EA020718BF46F0010616EB5B
:1027D0000E7655F1000254F1000103D5BDE88901E0
:1027E000BDE80088BDE88901BDE80048B61952413E
:1027F00041EB0101A3F10103704780807F7E7D7C66
:102800007B7A7978777676757473727171706F6E82
:102810006E6D6C6C6B6A6A6968686766666564642D
:10282000636362616160605F5F5E5E5D5D5C5C5BB7
:102830005B5A5A5959585857575656555555545426
:10284000535352525251515050504F4F4F4E4E4D84
:102850004D4D4C4C4C4B4B4B4A4A4A4949494848D0
:102860004847474747464646454545444444444310
:1028700043434342424242414141002B26D4770028
:1028800021D01CB54FEA370703B44FF010004FF0CA
:10289000100117F0EDFB0FBCBDE810400BF1010B70
:1028A000BBF1010F08BF5FEA170722BF12F1010257
:1028B00011F101014FF0004143F1000300F000402D
:1028C00043EA00007047F9D35708DAE746EA0646BC
:1028D00013F1400F4FEA16461FDD13F1200FDFBF43
:1028E00016430A46002120335B42C8D0C3F12007BB
:1028F00046EA064602FA07F74FEA164646EA070690
:10290000C3F1200722FA03F201FA07F721FA03F1D3
:102910004FF0000342EA0702B1E746EA020646EA40
:1029200006464FEA164646EA0106BCBF46EA064698
:10293000360C4FF000034FF000024FF000019EE70D
:102940002DE9C048934630B491E8380007C831EA11
:10295000400C48BF34EA430C03D5FFF7F2FDFFF704
:102960008CFFF0BCBDE800882DE9C048934630B428
:1029700091E8380007C810F0804F08BF13F0804F6F
:1029800003D100F005F8FFF778FFF0BCBDE8008840
:1029900020F07F4780EA030023F07F4C07EB0C0315
:1029A000A3F57C5300F00040A3F1FE0392F0000F6A
:1029B00000F0B38095F0000F00F077802DE9014919
:1029C0004FEA11404FEA144621EA004800FB06FC9A
:1029D00024EA064708FB06F607FB08F800FB07F7A2
:1029E00018EB06484CEB164C4FEA124B18EB074815
:1029F0004FEA15464CEB174022EA0B4E0BFB06FC48
:102A000025EA06470EFB06F607FB0EFE0BFB07F753
:102A10001EEB064E4CEB164C4FF000061EEB074E1D
:102A20004CEB174B18EB0B0840F1000018EB0E0BAA
:102A300058EB000840F100008F1A4FF000013CBF36
:102A4000C943661B14BFB5EB040C00213CBFC9434E
:102A5000F61B4FEA17444EEA8E0E27EA04454FEA6A
:102A60001C4704FB07622CEA074C05FB07F70CFB2D
:102A700005F604FB0CFC16EB074642EB174216EB7F
:102A80000C4642EB1C421BEB060658EB020241418E
:102A900046EA9E0601D5BDE80189B619524141EBCF
:102AA0000101A3F10103BDE801894FEA14454FEA92
:102AB000114724EA054621EA074C05FB07F406FB0B
:102AC00007F70CFB06F105FB0CFC11EB074144EB8F
:102AD00017444FEA124711EB0C4144EB1C4422EA25
:102AE000074C05FB07F206FB07F70CFB06F605FB98
:102AF0000CFC16EB074642EB174216EB0C4642EB7A
:102B00001C456A1854F1000148BF7047B61952417C
:102B100041EB0101A3F10103704795F0000F37D09D
:102B20004FEA11424FEA144721EA024624EA074CD1
:102B300002FB07F106FB07F70CFB06F402FB0CFC9B
:102B400014EB074441EB17414FEA154714EB0C44D3
:102B500041EB1C4125EA074C02FB07F506FB07F792
:102B60000CFB06F602FB0CFC16EB074645EB174583
:102B700016EB0C4645EB1C42121951F1000148BFFF
:102B80007047B619524141EB0101A3F101037047AF
:102B90004FEA14454FEA114724EA054621EA074C5B
:102BA00005FB07F106FB07F70CFB06F24FF00006EA
:102BB00005FB0CFC12EB074241EB174112EB0C42F8
:102BC00051EB1C4148BF7047921841EB0101A3F142
:102BD00001037047EFF3098141B1F1EE101A40F89B
:102BE000041D20ED200A3E490A6810607047B0ECD1
:102BF000200A02C8E1EE101A3A490A6810607047CC
:102C000072B64EF62250CEF2000040F2FF01C0F242
:102C1000000101704FF0000080F309880DF0A2F868
:102C200040F2A830C2F20200016881F3088840F245
:102C30002A30C2F2020040F22B31C2F202010A78BD
:102C4000027040F2A035C2F2020540F2A431C2F295
:102C500002010A682A60106880F30988EFF3148083
:102C600040F0020080F31488BFF36F8FBDE8F00FCF
:102C70000FBCBDE8005006BC62B608471A484FF0CA
:102C800080510160704718484FF0805101607047D3
:102C900072B6EFF3098020E9F00F40F2A035C2F2DE
:102CA00002052E68306074460DF05CF840F22A3060
:102CB000C2F2020040F22B31C2F202010A78027025
:102CC00040F2A431C2F202010A682A6044F0F40E14
:102CD0001068B0E8F00F80F3098862B67047000012
:102CE000A0030220A403022004ED00E010B582B08E
:102CF000002001218DF8040001A810F077FB0321CA
:102D0000684610F069FB9DF800009DF80110000472
:102D100040EA01209DF8021040EA01045D208DF890
:102D20000400012101A810F061FB0321684610F0A6
:102D300053FB9DF800009DF80110000440EA0120BB
:102D40009DF802100843044988421BBF034884428F
:102D50000120002002B010BDE0227000A02271000E
:102D6000FEE700002DE9F0411D4E0027776000F0DE
:102D700091F8378000257780B760F7607761B76199
:102D80003761FDF73FFB0024804677613088401CA7
:102D90003080708810B900F095F8B0607088401CE1
:102DA000708000F057F870690544601C0404240C1E
:102DB000EBD0C6E904574046B761FDF727FBFDF7A6
:102DC00021FB044600F036F8064810210AF062FFA5
:102DD00000F040F82046BDE8F041FDF717BB0000C9
:102DE000C40202206C24022070B5FDF70BFB084DD5
:102DF0006C69FDF70BFB286984428CBF241A002400
:102E0000FDF700FB00216961FDF700FB204670BD66
:102E1000C402022070B5FDF7F5FA054DAC69FDF767
:102E2000F5FA286984428CBF201A002070BD00008A
:102E3000C402022010B5064C2088401C2080608807
:102E400010B900F03FF8A0606088401C608010BDA1
:102E5000C402022010B50B4C6088401E0004000C18
:102E6000608018BF10BD00F02DF8E060A168401A26
:102E70006169814238BF6061A169814238BFA06148
:102E800010BD0000C40202200149486070470000E4
:102E9000C402022010B502F029FB08490A6842F07A
:102EA00080720A60064900224A600A6842F0010204
:102EB0000A60BDE81040FFF7E7BF0000FCED00E04E
:102EC000001000E00148406870470000001000E07A
:102ED00070B4BFF34F8FBFF36F8F184900200860A5
:102EE000174D296841F400312960BFF34F8FBFF3BC
:102EF0006F8F14490860BFF34F8F081F006843F6B7
:102F0000FF76114AC0F34E3CC0F3C90406EA4C11E7
:102F1000204641EA80731360401EFAD2BCF1010CD6
:102F2000F4D2BFF34F8F286840F480302860BFF39D
:102F30004F8FBFF36F8F70BC7047000050EF00E001
:102F400014ED00E084ED00E060EF00E01748092197
:102F50009FED150A80ED030A81700D21C1701E21BD
:102F6000017102219FED120A41702F21417111213F
:102F700080ED020A9FED0F0A017080ED060A9FEDB9
:102F80000E0A80ED050A9FED0D0A80ED090A9FEDFE
:102F90000C0A80ED040A9FED0B0A80ED080A9FEDF4
:102FA0000A0A80ED070A70473301C8420043022035
:102FB00015345C437920B542DCCBE541FB590B422B
:102FC0004BF94B42BF2E21423DD8F74270475A2160
:102FD000C92010B512F00CFA01204BF67E1112F048
:102FE00007FA03204FF6044112F002FA312043F2AF
:102FF000374112F0FDF970204FF4857112F0F8F9A5
:103000000021022012F0F4F90321302012F0F0F92F
:1030100017204FF6B47112F0EBF918204FF68271B9
:1030200012F0E6F919204FF6467112F0E1F91A2074
:103030004FF6086112F0DCF91B204FF6266112F002
:10304000D7F91C204FF6126112F0D2F95B21C9208A
:1030500012F0CEF9BDE810404FF4FA7012F03EBD08
:10306000C268D1E9002342EA03220B89097B1B04D1
:1030700043EA01611143C160002070478268D1E9D1
:10308000002342EA03220B89097B1B0443EA016106
:1030900011438160002070474DF8044D02680D4BCC
:1030A0001A40D1E9013C43EA0C03D1E903C44CEADC
:1030B000040C43EA0C03D1F814C0896943EA4C2399
:1030C00043EA4131114341F0080101605DF8044BCE
:1030D000002070478101F0FFB3F5804F30B418BF76
:1030E0006FF0704104D040F8221030BC00207047CF
:1030F00050F82230DFF824C08D8903EA0C03D1E9AF
:1031000000C44CEA041C8C688969240244EA054422
:103110004CEA040C4CEA01011943E4E70000F0CF4B
:1031200070B4D1F800C050F82C201B4BD1E90356E5
:103130001A40D1E9014335431C432C434D692C43CC
:103140008D692C43CD692C430D6A2C434D6A2C4369
:103150008D6A2C43CD6A2C430D6B2C438D6B2C4315
:103160004D6B2C432243082B08BF42F0400240F82D
:103170002C200A6BB2F5801F05D10A684AB102689B
:1031800042F4801202600A681AB10268496B114366
:10319000016070BC002070478004C0FF00EB820219
:1031A00070B453684FF07E46D1E900C48D8903F0B6
:1031B00040434CEA041C8C68240244EA05440D8A0E
:1031C0004CEA0404DFF834C00CEB05552C430D7DAC
:1031D00006EB05652C438D692C432343536002683D
:1031E00012F4801F07D04268098A22F470020CEBA7
:1031F00001511143416070BC002070470000F0FF96
:103200004DF8044DD1E901320C681343D1E903C2F2
:103210004CEA02021A434B6913438A69012C046881
:1032200043EA020CCB690A6A496A08D04CEA0303F4
:103230001A4311436FF30E04214301600BE024F4A1
:10324000F8441A4321430A43416802606FF30E01B8
:103250004CEA010141605DF8044B0020704742696F
:1032600042EA4101416100207047F8B51446054625
:10327000D1E900026FF01F0310438A68C96803EBAD
:10328000421242EA412108430090286101F002F80D
:103290000646A86910F0200F0ED0B4F1FF3F07D00A
:1032A00024B100F0F7FF801BA04201D90320F8BD34
:1032B000A86910F0200FF0D10020F8BD2DE9F00131
:1032C000D1F804C06FF00F050B682C015B1E05EBF5
:1032D0000C1C43EA0C03D1F808C04FEA042827036A
:1032E00004EB0C2C43EA0C050B8A2604CC68012A5B
:1032F000826808EB034C8B8A097E07EB035306EBCD
:1033000001610DD0361306EB04342C4344EA0C0C57
:103310004CEA0303194302F070421143816012E04A
:10332000240322F47042A4F58054234322F4700253
:103330001A43C36845EA0C0C826003F070434CEA00
:1033400001011943C160BDE8F00100207047000091
:103350002DE9F0472C4E002782B089460DF1040874
:103360000546BA46B0790024002815D9CDF800806A
:10337000002170884A468308B07900FB05F00BF005
:10338000AFF87088BDF80410B1EB900F04D1601C49
:1033900084B2B079A042E9D8B079A04203D102B09A
:1033A0000020BDE8F08728460AF03AFE20B117A0B9
:1033B0003946FDF763FE1BE0B9F1FF3F18D0ADF8C9
:1033C00004A0B079002813D970880022BDF8041039
:1033D0008308B07905FB001011460BF0F7F9BDF832
:1033E0000400401C80B2ADF80400B1798142EBD8F2
:1033F000781C87B2032FB5D30AA02946FDF73EFEFD
:1034000002B00120BDE8F087B00C02206572726F37
:103410007220657261736520626C6F636B3A25641C
:103420000D0A000062616420626C6F636B20636848
:1034300065636B65643A25640D0A00002DE9F04F61
:10344000DFF814B18A4691461D4683B09BF80610FA
:10345000B0FBF1F2B0FBF1F801FB12000190404625
:1034600000F0E8F80746BBF80A00874203D903B02A
:103470000120BDE8F08F9BF806000024002844D905
:103480000198844218D3BDB1BBF80200A0EB0A003A
:10349000A8422CBFAEB286B200969BF806004B46FF
:1034A000524607FB004108FB00400AF017FCAD1B29
:1034B0004FF0000AB14407E09BF8060007FB00410B
:1034C00008FB00400AF002FDC8B14FF0AA3000909E
:1034D0009BF80600042300216A4600FB07F00BF06E
:1034E000A1F99BF80600042300216A4600FB07F0BF
:1034F000401C0BF097F9012000F030F8AFE7601C9A
:1035000084B29BF80600A042BAD8C0B2A0421FD134
:10351000CC216A4601238DF8001000FB07F0194604
:103520000BF080F940460AF07BFDBBF80A20002032
:10353000002A88BFDBF814100AD931F8103043454F
:1035400002D121F8107003E0401C80B28242F4D80E
:1035500003B00020BDE8F08FB00C0220F8B52E4D6E
:10356000064600216889002888BF4FF6FF7006D9FB
:103570006A6922F811006A89491C8A42F8D8002039
:10358000A88104466889002821D9A879042300214C
:103590006A4600FB04F00AF0DBFF9DF80000FF28FC
:1035A0000DD106B3A879012300216A4600FB04F07F
:1035B000401C0AF0CDFF9DF80000FF2813D017A093
:1035C0002146FDF75BFD6889641CA042DDD869894E
:1035D0000020002988BF6A6918D932F810308B4260
:1035E00011D3E88112E09DF803109DF8020000EB72
:1035F00001216889884284BF686920F81140A88940
:10360000401CA881DFE7401C8842E6D3E889642893
:1036100034BF02200020F8BDB00C0220626164209B
:10362000626C6F636B20696E6465783A25640D0A7D
:103630000000000070B5114E0446114D70892968D4
:10364000401E884238BF286004F00101286800F05D
:1036500019F8B0F1FF3F0CD170892968401E8842EB
:1036600009D904F00101286000F00CF8B0F1FF3F27
:1036700001D0286070BD4FF0FF3070BDB00C02204B
:1036800030000220F8B50F460021441C00911CBFF9
:1036900001250D4E12D025EA0400B8420CD1B079B4
:1036A000611E04236A4600FB01F000210AF050FF6E
:1036B0000098B0F1FF3F04D0641EECD14FF0FF3012
:1036C000F8BD601EF8BD0000B00C02202DE9F047E7
:1036D000544D002682B0344601274FF00208AE81D7
:1036E0006889002888BF4FF0AA3944D98DF8006056
:1036F0000123A87900216A4600FB04F00AF028FFA4
:103700009DF80000FF2818BF404601D080B12EE090
:10371000A879012300216A4600FB04F0401C0AF04E
:1037200017FF9DF80000FF280CBF30463846EDE734
:1037300020460AF075FCB8B13BA02146FDF79EFC7F
:10374000CDF800900423A87900216A4600FB04F01C
:103750000BF068F8A879042300216A4600FB04F006
:10376000401C0BF05FF802E0A889401CA881688922
:10377000641CA042BAD8A9892FA0FDF77FFCA889B4
:1037800064283EBF012002B0BDE8F087C0EB4010C6
:103790002E49002400EB40000196A1FB00104FEAE7
:1037A000501A6889002834D98DF800600123A8795F
:1037B00000216A4600FB04F00AF0CAFE9DF80000F2
:1037C000FF2818BFC14603D0B9F1000F1DD10FE08B
:1037D000A97901236A4601FB04F00021401C0AF08C
:1037E000B7FE9DF80000FF280CBFB146B946EBE7D5
:1037F000A879022301AA194600FB04F00BF012F885
:103800000198401C0190504503D06889641CA04277
:10381000CAD80120FFF7A2FE002818BF022002B07C
:10382000BDE8F087B00C022042616420626C6F63D7
:103830006B3A25640D0A0000676F6F645F626C6FFE
:10384000636B6E756D3A25640D0A00001F85EB51A0
:1038500010B50AF00FFC002821D1194C616900292C
:103860001CBF002015F08AFB60894100002015F084
:10387000BDFB606161894900FDF7EBFE606970B1D5
:103880000120FFF76BFE60B10EA0FDF7F7FBFFF71D
:103890001DFF90B111A0FDF7F1FB022010BD01202A
:1038A00010BD618912A0FDF7E9FBA18916A0FDF703
:1038B000E5FBE18919A0FDF7E1FB002010BD000048
:1038C000B00C0220666F726D6174206E616E6420B0
:1038D000666C6173682E2E2E0D0A0000666F726D85
:1038E0006174206661696C6564210D0A0000000046
:1038F000746F74616C20626C6F636B206E756D3ACF
:1039000025640D0A00000000676F6F6420626C6F11
:10391000636B206E756D3A25640D0A0076616C69E3
:103920006420626C6F636B206E756D3A25640D0ABE
:10393000000000002DE9FF4F5FEA0309144681B043
:1039400082464FF000067DD0DFF848C1BCF8020087
:103950009CF80620B0FBF4F101FB02F502998B19EB
:10396000B3FBF5F1BCF80E508D4232BF4FF6FF713C
:10397000DCF8145035F81110BCF80A508D4203D809
:1039800005B00120BDE8F08FB0FBF4FC0CFB02FC9D
:10399000B3FBFCF50CFB153303FB04F3B3FBF0FCAA
:1039A00001FB02C7B3FBF0F100FB1138A0EB0800EC
:1039B000B0FBF4F085B2A9EB0600854288BF85B262
:1039C00005FB04FB1FFA88F152461FFA8BF33846B9
:1039D0000AF01AFC032809D11FFA8BF352461FFA8A
:1039E00088F138460AF010FC032807D0042818BFD5
:1039F000002845D005B00220BDE8F08F1FFA88F1FD
:103A00005B4652463846FFF719FDDFF888804FF0D5
:103A1000FF3198F80600B7FBF0F0FFF799FC80B98A
:103A200098F806000021B7FBF0F0FFF791FC834601
:103A300098F80600B7FBF0F00AF0F2FABBF1000FBD
:103A40001ED000E022E098F80600042300216A4618
:103A5000B7FBF0F74FF0AA30009098F8060000FB93
:103A600007F00AF0DFFE98F80600042300216A46FA
:103A700000FB07F0401C0AF0D5FE0120FFF76EFDA9
:103A800004FB05AA2E444E45FFF45EAF05B00020AE
:103A9000BDE8F08FB00C02202DE9FF4F85B0154630
:103AA0005FEA030B4FF000084FF0FF3003907CD02B
:103AB000DFF838C1BCF802009CF80620B0FBF5F135
:103AC00001FB02F4069901EB0803B3FBF4F1BCF827
:103AD0000E408C4232BF4FF6FF76DCF8144034F8CB
:103AE0001160BCF80A10B14203D809B00120BDE84A
:103AF000F08FB0FBF5F101FB02F1B3FBF1FC01FB30
:103B00001C3101FB05FABAFBF0F106FB0211029130
:103B1000BAFBF0F100FB11A9ABEB08010491A0EB9B
:103B2000090080B2B0FBF5F08CB2ADF80400A04201
:103B300098BF044604FB05F701A800901FFA89F11D
:103B400002984FF0FF32C7F38F030AF0C9FC18B197
:103B500009B00220BDE8F08FBDF80400B0EB970F6C
:103B600018D1BBB2059A1FFA89F102980AF06CFDD0
:103B700080B90398B0422ED0CC208DF800001B48AD
:103B800001236A461946807900FB06F00AF04AFED6
:103B9000039600B315488179408801FB00F0A0EB43
:103BA0000A00B0FBF5F080B200E01BE00499ADF82C
:103BB00004008CB2844228BF044604FB05F71FFAB8
:103BC00089F1059A02983B46FFF738FC18B109B015
:103BD0000320BDE8F08F0599A044D84539440591EC
:103BE000FFF466AF09B00020BDE8F08FB00C0220F2
:103BF0002DE9E04384B049A1FDF73AFC01220646D5
:103C0000FF2701782A2903D0202901D37A2901D955
:103C1000384608E02C2904BF511ECAB2401C002AB5
:103C2000EFD1801BC0B2DFF8FC80FF2842F2107990
:103C300027D0304403A90AF00BFE9DF80C300A226D
:103C400001218446581EC0B204D301FB02F1401E7C
:103C5000C0B2FAD2BCFBF1F0B0FBF9F1E170A8FB05
:103C600000214909A8FB01326FF01803520902FB39
:103C700003F201EB8202227101FB03F100EB8100F0
:103C800060710921354628782A280CD020280AD3CB
:103C90007A2808D82C2804BF481EC1B26D1C002900
:103CA000F1D1A81BC7B2FF2F18D0F01903A90AF051
:103CB000CFFDB0FBF9F1A170A8FB00214909A8FBD9
:103CC00001326FF01803520902FB03F201EB82028A
:103CD000627001FB03F100EB81002070E078083096
:103CE000C0B2E070182804D31838E070A078401CE7
:103CF000A070A278002A04BF04B0BDE8E0830023CE
:103D0000617920790090CDE90113E378617820781A
:103D100015F0CCFE04B0BDE8E0830000474E524DE4
:103D2000430000001F85EB5190F83510022903D0A5
:103D30008021416501207047052180F83510006819
:103D4000016821F0010101600020704770B5044650
:103D500000F0A0FA002C054604BF012070BD00262B
:103D6000022084F8346084F835002068016821F06E
:103D7000010101602068006810F0010F0FD000F011
:103D800089FA401B052805D920206065032084F8A6
:103D9000350070BD2068006810F0010FEFD1216878
:103DA00008683E4A1040D4E901231A43D4E9033C91
:103DB00043EA0C031A4363691A43A3691A43E3698C
:103DC0001A43236A1A431043626A042A03D1D4E9CE
:103DD0000B231A4310430860236858694FF0010C05
:103DE00020F00701606A014304283ED1A06AA2695D
:103DF000014352B1B2F5005F1CD000281CBF01285E
:103E000002282CD0032826D02FE020B1012807D08B
:103E100002280AD029E0E06A10F0807F1FD124E058
:103E2000E06AB0F1C07F20D119E0E06A10F0807F35
:103E300015D11AE098B1012808D002280FD0032824
:103E400004BFE06AB0F1C07F09D00EE0E06A10F074
:103E5000807F04D109E0E06A10F0807F05D0402027
:103E6000606584F835C0012070BD596120680C4A36
:103E7000C1B210396FF30900A2FB0121094A0909F7
:103E80000329525CE26588BF001D3F21A065914077
:103E90008160666584F835C0002070BD3F8010E009
:103EA000ABAAAAAAB0A0010831B500F0F3F9044604
:103EB00000F0F0F90099001B8842F9D338BD0000EA
:103EC0002DE9F04FDFF870910022DFF870A14FF07C
:103ED000010B4FF0030E4FF00F080BFA02F401EA4A
:103EE0000403A3427ED105684FEA420C0EFA0CFC93
:103EF00025EA0C050560D50800EB85052E6A5707F5
:103F0000FF0E08FA07F7BE432E62856825EA0C0506
:103F10008560456825EA04044460C46824EA0C0C02
:103F2000C0F80CC022F0030C0CF1804404F5983466
:103F3000D4F808C895072E0F08FA06F505EA0C070D
:103F4000A0F1804CBCF5003C48D0A0F1804CBCF501
:103F5000013C08BF4FF0010C40D0A0F1804CBCF5F3
:103F6000023C08BF4FF0020C38D0A0F1804CBCF5E9
:103F7000033C08BF4FF0030C30D0A0F1804CBCF5DF
:103F8000043C08BF4FF0040C28D0A0F1804CBCF5D5
:103F9000053C08BF4FF0050C20D0A0F1804CBCF5CB
:103FA000063C08BF4FF0060C18D0A0F1804CBCF5C1
:103FB000073C08BF4FF0070C10D0A0F1804CBCF5B7
:103FC000083C08BF4FF0080C08D0A0F1804CBCF5AD
:103FD000093C0CBF4FF0090C4FF00A0C0CFA06FC20
:103FE000BC4500E021E020D1D4F808C82CEA050C3B
:103FF000C4F808C8D9F800C02CEA030CC9F800C0FE
:10400000DFF83CC0DCF800409C43CCF80040DAF814
:1040100000C02CEA030CCAF800C0DFF828C0DCF8A6
:10402000004024EA0303CCF80030521C102AFFF4AD
:1040300054AFBDE8F08F0000003C0140083C014057
:10404000043C01400C3C01402DE9F84FDFF81C9284
:104050000022DFF814820F2709F1040A4FF0010E45
:104060000B680EFA02F52B40AB4240F0F780D1F816
:1040700004C0BCF1020F18BFBCF1120F12D14FEAFD
:10408000D20C00EB8C0CDCF820605407E40E07FA2D
:1040900004FB26EA0B06D1F810B00BFA04F4344303
:1040A000CCF8204006684FEA420C91F804B0032493
:1040B0000BF0030B04FA0CF4A6430BFA0CFB4BEACF
:1040C000060606604E68012E18BF022E03D0112E80
:1040D00018BF122E11D18668D1F80CB0A6430BFA86
:1040E0000CFB4BEA06068660466826EA05050E7953
:1040F000C6F30016964035434560C56825EA0404BA
:104100008D6805FA0CFC4CEA040CC0F80CC0D1F820
:1041100004C01CF0805F7CD0D8F800C04CF4804C08
:10412000C8F800C0D8F800C00CF4804CCDF800C02E
:1041300022F0030C0CF1804505F59835D5F808C838
:104140009407240F07FA04F62CEA0606A0F1804C27
:10415000BCF5003C48D0A0F1804CBCF5013C08BF48
:104160004FF0010C40D0A0F1804CBCF5023C08BFE0
:104170004FF0020C38D0A0F1804CBCF5033C08BFD6
:104180004FF0030C30D0A0F1804CBCF5043C08BFCC
:104190004FF0040C28D0A0F1804CBCF5053C08BFC2
:1041A0004FF0050C20D0A0F1804CBCF5063C08BFB8
:1041B0004FF0060C18D0A0F1804CBCF5073C08BFAE
:1041C0004FF0070C10D0A0F1804CBCF5083C08BFA4
:1041D0004FF0080C08D0A0F1804CBCF5093C0CBF96
:1041E0004FF0090C4FF00A0C0CFA04FC4CEA060CD8
:1041F000C5F808C8D9F800C04C682CEA030C14F4C0
:10420000803F18BF4CEA030CC9F800C0DAF800C0C0
:1042100000E023E04C682CEA030C14F4003F18BFC4
:104220004CEA030CCAF800C0114CD4F800C04D6829
:104230002CEA030C15F4801F18BF4CEA030CC4F8D9
:1042400000C00C4CD4F800C04D682CEA030C15F4E7
:10425000001F18BF4CEA030CC4F800C0521C102AFF
:10426000FFF4FEAEBDE8F88F44380240003C014048
:10427000083C01400C3C01400069084018BF012087
:1042800070474269514041617047002A08BF0904E4
:1042900081617047014800687047000004000220F7
:1042A00002480168491C01607047000004000220B8
:1042B000074810B5016841F400710160052000F065
:1042C00095FA0F2000F006F800F0C4F9002010BDA8
:1042D000003C024010B5044607484FF47A7200686B
:1042E000B0FBF2F003F04EF900222146501E00F020
:1042F0004BFA002010BD0000000002202DE9F05F05
:10430000044690F8A000012804BF0220BDE8F09FF9
:104310000125022084F8A05084F8A10002EB82005D
:1043200000EBC20004EB8003B1E8C11F3833A3E8FF
:10433000C11F91E8C111203983E8C111204609F05D
:1043400037FB2068456284F8A150002084F8A00063
:10435000BDE8F09F002804BF0120704770B50446F7
:1043600090F8A100002520B9204684F8A05000F064
:1043700077F8022084F8A1002068816921F070415B
:104380008161D4E901010843D4E9031211430143D7
:104390002068826911438161206882682F490A4040
:1043A0008260A08A020420688368D4F818C043EAB7
:1043B0000C031A4382602068C2680A40C260A08B66
:1043C00002042068C368D4F820C043EA0C031A43EF
:1043D000C260206802690A400261A08C0204206861
:1043E0000369D4F828C043EA0C031A430261206829
:1043F000426911404161A08D010420684269236B2C
:104400001A431143416194F83500020294F83600D2
:1044100001042068C36A03F07F43C3622068C36A53
:10442000114394F834C043EA0C031943C162206875
:10443000416B41F0040141632068416B41F002018E
:1044400041632068816941F001018161C4F8A45091
:10445000012084F8A100002070BD000000F800F0E9
:10446000354810B586B0016841F080610160006890
:1044700000F0806005903148016841F4000101605E
:10448000016801F400010591016841F00201016039
:10449000016801F002010591016841F0200101600D
:1044A000016801F020010591016841F040010160BF
:1044B000016801F040010591016841F0800101604F
:1044C000016801F080010591016841F4807101608B
:1044D00000680324694600F4807005902020009055
:1044E00001200190CDE902041548FFF7ADFD4FF41E
:1044F000806000900220019000206946CDE902040E
:104500000E2004900F48FFF79FFD4FF40C600090C1
:104510000D486946FFF798FD4FF47E4000900B4828
:104520006946FFF791FD40F2F76000900848694640
:10453000FFF78AFD06B010BD443802403038024013
:10454000000402400014024000180240001C024017
:104550000020024070B5044690F8A0008C46012867
:1045600004BF022070BD0125022084F8A05084F809
:10457000A10003EB830000EBC30004EB800000F11B
:104580003801C0F838C0006E6044C1E90102C86A51
:1045900010441A46C860204609F00AFA20684562AD
:1045A00084F8A150002084F8A00070BD70B50446C6
:1045B00090F8A0008C46012804BF022070BD0125A0
:1045C000022084F8A05084F8A10003EB830000EBE4
:1045D000C300002604EB800000F138012046C1E949
:1045E000006CC1E90262C1E90AC21A4609F0E0F9A9
:1045F0002068456284F8A150002084F8A06070BD56
:10460000134A41781160111D03780A1D002B04BF65
:10461000002008601AD043680B60017BC37A090749
:1046200041EA0361837A41EAC341437B41EA834122
:10463000837B41EA4341C37B41EA0341437A41EA38
:104640000321037A007841EA430108431060704770
:1046500098ED00E07047002804BF0120704770B556
:10466000044690F8210015460E4628B9002084F82B
:104670002000204600F018F82068211DFEF70CFDF0
:10468000D4E900023146FEF7F9FCD4E900022946DC
:10469000FEF7E6FC2068016841F00401016001209A
:1046A00084F82100002070BD264870B586B00168EE
:1046B00041F001010160006800F00100059022480E
:1046C000016841F008010160016801F008010591ED
:1046D000016841F010010160016801F010010591CD
:1046E000016841F040010160006800240325174E75
:1046F00000F04000059040206946CDE9000401200B
:10470000CDE902053046FFF79FFC711500910C20A2
:104710000221CDE90114CDE903500D486946FFF7A8
:1047200093FC4DF633006946029400903046FFF743
:104730008BFC4FF4F060009006486946FFF784FC5C
:1047400006B070BD3838024030380240000C0240DC
:104750000018024000100240012200F01F0102FA7E
:1047600001F14009800000F1E020C0F8801170479D
:10477000012200F01F0102FA01F14009800000F15E
:10478000E020C0F800117047174B4DF8044D1B682E
:10479000C3F30223C3F1070CBCF1040F88BF4FF031
:1047A000040C1C1D072C34BF0023DB1E012404FA5B
:1047B0000CFCACF1010C0CEA0101994004FA03F382
:1047C0005B1E1A40114300284FEA0111B8BF00F0E8
:1047D0000F0000F1E020B4BF80F8141D80F8001431
:1047E0005DF8044B704700000CED00E0074A00F054
:1047F000070011684FF6FF03194041EA002040F01E
:10480000FD7040F080601060704700000CED00E02B
:104810001C4838B5016841F08051016000681A4CAD
:1048200000F080500090206840F480302060FFF756
:1048300031FD0546606810F4803F09D1FFF72AFD7D
:10484000401BB0F57A7F14D8606810F4803FF5D033
:10485000206840F400302060FFF71CFD05466068CA
:1048600010F4003F0BD1FFF715FD401BB0F57A7F28
:1048700001D9032038BD606810F4003FF3D0002058
:1048800038BD000040380240007000400248016816
:1048900041F4807101607047007000402DE9F84FCD
:1048A00016468A460446FFF7F5FC834694F838001E
:1048B000012804BF0220BDE8F88F012784F8387072
:1048C00094F839004FF00008012818BF022504D0E1
:1048D00084F838802846BDE8F88FC4F83C804FF053
:1048E000020984F83990002220215B462046009678
:1048F0000DF028F90500EBD10022514620460CF0BE
:104900009BFFDAF82400002818BF84F83970DFD143
:1049100001225B460221204600960DF013F90500A6
:10492000D6D12068C0F80C9084F83970D0E7000028
:10493000F8B50446FFF7AEFC002C074604BF012083
:10494000F8BD94F83800012804BF0220F8BD012604
:1049500084F8386094F83900002538B984F8385064
:10496000204600F045F841F2883020642068016854
:104970006FF0FF03A26821F4F85103EB0222114308
:104980000160206C002220213B46009020460DF063
:10499000D9F8010026D1E269E06823791043226A40
:1049A00042EA036202432068036823F0D00323F045
:1049B0007F431A430260D4E905020243206843683A
:1049C000DFF828C003EA0C03B4F810C043EA0C4334
:1049D0001A4342602068026842F001020260E56307
:1049E00084F8396084F838500846F8BDFEF8E0FFD6
:1049F000224830B587B0016841F0020101600068CB
:104A000000F0020005901E48016841F002010160BB
:104A1000016801F002010591016841F02001016087
:104A200000680324174D694600F0200005904020DF
:104A30000090022001900120CDE902040A20049098
:104A40002846FFF701FB210200910021CDE9021465
:104A50000D4C69462046FFF7F7FA04210091092121
:104A6000284604916946FFF7EFFAC0206946009096
:104A70002046FFF7E9FA07B030BD000038380240A1
:104A80003038024000040240001402402DE9F84F83
:104A900015468A460446FFF7FDFB8146206881697A
:104AA00000F1200694F83820012A04BF0220BDE856
:104AB000F88F012784F8387094F839204FF00008F7
:104AC000012A18BF022003D084F83880BDE8F88F8F
:104AD000C4F83C80BAF1000F35D0222284F8392086
:104AE0000269521C62860269521C2286C4F82CA0FC
:104AF000426922F0406242F0806242612068816136
:104B0000608E90B101224B460621204600950DF0A3
:104B100019F8A8B93178E06A421CE2620170608E2F
:104B2000401E6086608E0028ECD101224B46022197
:104B3000204600950DF006F810B922680221D160D8
:104B400084F83970C0E7E06B40F00800E0630120B2
:104B5000BAE72DE9F84F15468A460446FFF79AFB57
:104B60008146206894F8381000F12006012904BF1E
:104B70000220BDE8F88F012784F8387094F83910C6
:104B80004FF00008012918BF022003D084F83880B4
:104B9000BDE8F88FC4F83C80BAF1000F31D0122183
:104BA00084F839100169491C61850169491C218516
:104BB000C4F824A0416921F040614161608D90B149
:104BC00001224B460421204600950CF0BBFFA8B9FA
:104BD000606A411C616200783070608D401E6085A3
:104BE000608D0028ECD101224B4602212046009521
:104BF0000CF0A8FF10B922680221D16084F8397046
:104C0000C4E7E06B40F00800E0630120BEE700006D
:104C10002DE9F84F04460078DFF82C944FF0000B94
:104C200010F0010F5D4610D0D9F8000020F400000C
:104C3000C9F80000D9F80000616B0843C9F800000A
:104C4000606B002808BF4FF0010B2068FF4E10F486
:104C5000002F0FD03068E16B20F440100843306023
:104C6000E06BB0F5801F08BF4FF0010B02D00028A9
:104C700008BF0125206810F4801F0FD03068216C18
:104C800020F4400008433060206CB0F5800F08BF6E
:104C90004FF0010B02D0002808BF0125206810F05A
:104CA000807F18BF4FF0010B10F0200F71D0E84843
:104CB000016841F0805101600068DFF8988300F0DE
:104CC00080500090D8F8000040F48070C8F80000D0
:104CD000FFF7E0FA0746D8F8000010F4807F0AD109
:104CE000FFF7D8FAC01B642800F23083D8F8000020
:104CF00010F4807FF4D0DFF86083D8F8000010F45F
:104D0000407031D0218E01F4407181422CD0D8F80E
:104D10000000D8F8001020F4407041F48031C8F849
:104D20000010D8F8001021F48031C8F80010C8F83D
:104D30000000D8F8000010F0010F15D0FFF7AAFA14
:104D40000746D8F8000010F0020F08BF41F2883A79
:104D50000AD1FFF79FFAC01B504500F2F782D8F83E
:104D6000000010F0020FF4D0206B4FF4407181432B
:104D70001CBFD9F8000020F4F81000F0EE80C9F84C
:104D80000000D8F80000218EC1F30B010843C8F8D9
:104D90000000207810F0100F07D0306820F08070ED
:104DA00030603068A16B08433060208810F4804F79
:104DB000AA4805D00168626E21F4403111430160B8
:104DC000218811F4004F05D00168A26E21F4402122
:104DD00011430160216811F4803F05D00168E26E43
:104DE00021F4401111430160216811F4003F05D006
:104DF0000168226F21F4400111430160217811F014
:104E0000400F05D00168626C21F00301114301607D
:104E1000217811F0800F05D00168A26C21F00C01FF
:104E200011430160218811F4807F05D00168E26C94
:104E300021F0300111430160218811F4007F05D079
:104E40000168226D21F0C00111430160218811F435
:104E5000806F05D00168626D21F4407111430160DB
:104E6000218811F4006F05D00168A26D21F4406122
:104E700011430160218811F4805F05D00168E26D63
:104E800021F4405111430160218811F4005F05D0E5
:104E90000168226E21F4404111430160216811F440
:104EA000800F05D00168A26F21F08061114301607D
:104EB000216811F4001F0AD00168E26F21F000613F
:104EC00011430160E16FB1F1006F08BF0125216856
:104ED00011F0080F18BF012511F4802F05D00168CB
:104EE000626F21F0407111430160216811F4000FDD
:104EF00006D00168D4F8802021F080511143016070
:104F0000216811F0806F06D00168D4F8842021F068
:104F1000005111430160206810F0006F06D0306826
:104F2000D4F8881020F0007008433060206810F03A
:104F3000805F06D03068D4F88C1020F08060084381
:104F40003060BBF1000F47F6C07A4FF440374FF0A6
:104F500070684FF0E0490ED109E0D9F8001020F454
:104F6000407020F0704021F4F811084307E72068F2
:104F7000B0F1007F67D13A48006820F0806138487E
:104F80000160FFF787F983463548006810F0006F2D
:104F90000BD0FFF77FF9A0EB0B00642800F2D6815D
:104FA0002F48006810F0006FF3D1207810F0010F47
:104FB0002C482DD0616B59BB016897FAA7F201F418
:104FC0004031B2FA82F2D140026898FAA8F39AFA14
:104FD000AAFC02F07062B3FA83F3BCFA8CFCDA40EC
:104FE000636803FA0CF397FAA7FCBCFA8CFC01FA8D
:104FF0000CF1194398FAA8F3B3FA83F39A4099FA9B
:10500000A9F30A43A168B3FA83F3994011430160FD
:10501000216811F4002F03D0E26BB2F5801F06D097
:1050200011F4801F49D0216CB1F5800F45D1016882
:1050300097FAA7F201F44031B2FA82F2D140026845
:1050400002F0E04210E0A5E0083802408C3802404F
:1050500040380240007000407038024090380240F2
:10506000003802408438024099FAA9F39AFAAAFC5F
:10507000B3FA83F3BCFA8CFCDA40636803FA0CF3EE
:1050800097FAA7FCBCFA8CFC01FA0CF198FAA8FC80
:105090001943E368BCFA8CFC03FA0CF3194399FA40
:1050A000A9F3B3FA83F39A40114301603168626A4D
:1050B00021F01F01521E11433160216811F0807FE1
:1050C0002ED0016898FAA8F201F07061B2FA82F26B
:1050D000D140026899FAA9F39AFAAAFC02F0E042D8
:1050E000B3FA83F3BCFA8CFCDA40636897FAA7FB47
:1050F000BBFA8BFB03FA0CF3D4F810C00CFA0BFCD0
:1051000043EA0C0398FAA8FCBCFA8CFC01FA0CF1F7
:10511000194399FAA9F3B3FA83F39A401143016052
:10512000216811F0007F1CD09AFAAAF2616897FA00
:10513000A7F3B2FA82F2B3FA83F301FA02F2216919
:10514000994098FAA8F31143E268B3FA83F39A40BE
:1051500099FAA9F31143A268B3FA83F39A40114371
:1051600001607F48006840F080617D480160FFF782
:1051700091F883467A48006810F0006F0AD1FFF773
:1051800089F8A0EB0B0064287DD87548006810F002
:10519000006FF4D0002D77D0714D286820F080503A
:1051A0002860FFF777F88346286810F0005F09D081
:1051B000FFF770F8A0EB0B00642864D8286810F0A3
:1051C000005FF5D12068DFF89CC110F4002F01D0FA
:1051D000E16B21B110F4801F38D0206CB0BBDCF83B
:1051E000000097FAA7F100F44030B1FA81F1C8400D
:1051F000DCF8001099FAA9F29AFAAAF301F0E0415A
:10520000B2FA82F2B3FA83F3D14062699A4097FA14
:10521000A7F3B3FA83F3984098FAA8F31043A2696E
:10522000B3FA83F39A40104399FAA9F2B2FA82F2E0
:1052300091400843CCF8000030686FF0FF02A16A8B
:1052400020F4F85002EB012108433060206810F48C
:10525000001F34D0E06FB0F1006F30D1DCF80000F7
:1052600098FAA8F100F07060B1FA81F1C840DCF85A
:10527000001099FAA9F29AFAAAF301F0E041B2FA01
:1052800082F2D14001E061E067E06269B3FA83F342
:1052900097FAA7FB9A40236ABBFA8BFB03FA0BF33E
:1052A0001A4398FAA8F3B3FA83F39840104399FA93
:1052B000A9F2B2FA82F291400843CCF800002078BB
:1052C00010F0080F32D0DCF8000098FAA8F100F0D6
:1052D0007060B1FA81F1C840DCF8001097FAA7F2CB
:1052E0009AFAAAF301F44031B2FA82F2B3FA83F3E4
:1052F000D14062699A4097FAA7F3B3FA83F39940D1
:10530000114398FAA8F2B2FA82F2904099FAA9F2FF
:105310000843E169B2FA82F291400843CCF80000F8
:105320003068E16A20F4403008433060286840F07B
:1053300080502860FEF7AEFF0446286810F0005F3A
:105340000BD1FEF7A7FF001B642802D90320BDE89C
:10535000F88F286810F0005FF3D00020BDE8F88FC8
:1053600000380240883802402DE9F047DFF86881B4
:1053700004460D46D8F8000000F00F00A8420CD2F9
:10538000D8F8000020F00F002843C8F80000D8F833
:10539000000000F00F00A84270D120784F4F10F0AD
:1053A000020F05D03868A16820F0F000084338608B
:1053B000207810F0010F4ED060684949012820D0B4
:1053C0000968022822D011F0020F57D0396821F065
:1053D000030108433860FEF75DFF0646606841F24E
:1053E0008839012816D00228386800F00C0021D036
:1053F000F8B1FEF74FFF801B484528D90320BDE8D0
:10540000F087096811F4003FE0D137E011F0007F28
:10541000DCD133E0386800F00C0004281BD0FEF724
:1054200039FF801B4845E9D8386800F00C00042893
:10543000F5D110E008280ED0FEF72CFF801B484560
:10544000DCD8386800F00C000828F5D103E0386893
:1054500010F00C0FCDD1D8F8000000F00F00A842DA
:105460000FD9D8F8000020F00F002843C8F800003A
:10547000D8F8000000F00F00A84202D00120BDE8DB
:10548000F087207810F0040F05D03868E16820F428
:10549000E05008433860207810F0080F06D03868D4
:1054A000216920F4604040EAC100386000F054F8FF
:1054B0003968F02292FAA2F201F0F001B2FA82F217
:1054C000D140084A515CC840074908600F20FEF7E8
:1054D00001FF0020BDE8F087003C02400838024090
:1054E0000038024098A0010800000220014800682E
:1054F0007047000000000220084809490068096858
:105500004FF4E05292FAA2F201F4E051B2FA82F2C0
:10551000D140044A515CC84070470000000002209E
:1055200008380240A8A0010808480949006809682D
:105530004FF4604292FAA2F201F46041B2FA82F2B0
:10554000D140044A515CC84070470000000002206E
:1055500008380240A8A001082148006810F00C019A
:10556000204808BF7047DFF880C0042904BF6046A8
:105570007047082918BF70474DF8044D1B4A116841
:10558000136801F03F0113F4800F47F6C0730BD08E
:10559000BCFBF1F01168194093FAA3F3B3FA83F35B
:1055A000D94000FB01F00AE0B0FBF1F011681940AE
:1055B00093FAA3F3B3FA83F3D94000FB01F0116827
:1055C0004FF440325DF8044B92FAA2F201F44031FC
:1055D000B2FA82F2D140491C4900B0FBF1F07047A9
:1055E000083802400024F40040787D01043802406D
:1055F0002DE9F84FDFF8A88304460078A8F10407E6
:1056000010F0010FA7F104055AD0D8F8000000F0FF
:105610000C00042809D0D8F8000000F00C0008287D
:105620000CD1386810F4800F08D0286810F4003FBF
:1056300046D06068002800F0AF8141E06068B0F5B6
:10564000803F04BF286840F480300AD010B1B0F524
:10565000A02F11D0286820F480302860286820F41A
:10566000802028606068D0B1FEF714FE06462868E6
:1056700010F4003F08D023E0286840F48020286020
:10568000286840F48030ECE7FEF704FE801B6428B5
:1056900000F22581286810F4003FF5D010E0FEF7F5
:1056A000F9FD0646286810F4003F09D0FEF7F2FD28
:1056B000801B642800F21381286810F4003FF5D1A4
:1056C000207810F0020F50D0D8F800004FF0F80901
:1056D00010F00C0F18D0D8F8000000F00C000828CB
:1056E00004BF386810F4800F0ED0E06800282868E6
:1056F00028D040F001002860FEF7CCFD064628685F
:1057000010F0020F09D011E0286810F0020F1CBF42
:10571000E06801280AD000F03FB9FEF7BBFD801B0E
:1057200002287DD8286810F0020FF6D0286899FA70
:10573000A9F22169B2FA82F220F0F8009140084300
:10574000286012E020F001002860FEF7A3FD064665
:10575000286810F0020F08D0FEF79CFD801B02287D
:105760005ED8286810F0020FF6D1207810F0080FEC
:1057700033D0DFF8309260690028D9F8000016D0E5
:1057800040F00100C9F80000FEF784FD0646D9F894
:10579000000010F0020F20D1FEF77CFD801B0228D4
:1057A0003ED8D9F8000010F0020FF5D015E020F037
:1057B0000100C9F80000FEF76DFD0646D9F80000AB
:1057C00010F0020F09D0FEF765FD801B022827D8D4
:1057D000D9F8000010F0020FF5D1207810F0040F76
:1057E00063D07148016841F08051016000686F4EDC
:1057F00000F080500090306840F480703060FEF718
:1058000049FD8146306810F4807F0BD1FEF742FDE0
:10581000A0EB0900642862D8306810F4807F00E0B3
:105820005DE0F3D0A068624E012804BF306840F00C
:10583000010009D008B1052813D0306820F001001C
:105840003060306820F004003060A06841F2883A8F
:10585000D0B1FEF71FFD8146306810F0020F08D06E
:1058600023E0306840F004003060306840F0010010
:10587000EAE7FEF70FFDA0EB090050452FD830688E
:1058800010F0020FF5D010E0FEF704FD81463068FD
:1058900010F0020F09D0FEF7FDFCA0EB0900504507
:1058A0001DD8306810F0020FF5D1A069E8B3D8F820
:1058B000001001F00C0108296ED00228286820F0A1
:1058C000807028600ED0FEF7E5FC0446286810F0D2
:1058D000007F5ED0FEF7DEFC001B022855D90320B6
:1058E000BDE8F88FFEF7D6FC0646286810F0007F6A
:1058F00008D0FEF7CFFC801B0228F0D8286810F0F3
:10590000007FF6D1D4E9070147F6C0724FF0FF33AC
:1059100092FAA2F20843616AB2FA82F29140A26A54
:1059200003EB52024FF4403300E032E093FAA3F36A
:10593000B3FA83F39A4011434FF070620843E16A6F
:1059400092FAA2F2B2FA82F291404FF0E04208439A
:10595000216B92FAA2F2B2FA82F2914008433860C7
:10596000286840F080702860FEF794FC04462868A0
:1059700010F0007F0DD1FEF78DFC001B0228AED881
:10598000286810F0007FF6D003E0286810F0007F50
:10599000A0D10020BDE8F88F0120BDE8F88F0000FD
:1059A000083802407438024040380240007000401D
:1059B0007038024070470068503050F8210070473E
:1059C0000068503040F82120704700000148012154
:1059D000FEF757BC0004024010B504460068C168D9
:1059E00011F4806F1CBF806810F4804F09D02046EE
:1059F000FFF7ECFF2068C16801F0800161F490615D
:105A0000C16003494FF4800008600120607710BD39
:105A1000143C014001A0FBF731BB0000414C415256
:105A20004D2041210D0A000010B504460068C168F0
:105A300011F4807F1CBF806810F4805F09D020467D
:105A4000FFF7E8FF2068C16801F0800161F4C071D0
:105A5000C1602068C16811F4007F1CBF806810F429
:105A6000005F09D02046FFF7A5FF2068C16801F05C
:105A7000800161F42071C16003494FF40030086077
:105A80000120607710BD0000143C01404DF8044D2A
:105A90000068406820F0C00020F07F4000F03F0424
:105AA0004FEA104C81F803C0C0F304234B708C7094
:105AB000C0F342300870C2B94FEA1C100CF00F025C
:105AC00000EB800002EB4000C870180903F00F02E1
:105AD00000EB800002EB40004870200904F00F0248
